{
  "_format": "hh-sol-artifact-1",
  "contractName": "MixedRouteQuoterV1",
  "sourceName": "contracts/lens/MixedRouteQuoterV1.sol",
  "abi": [
    {
      "inputs": [
        {
          "internalType": "address",
          "name": "_factory",
          "type": "address"
        },
        {
          "internalType": "address",
          "name": "_factoryV1",
          "type": "address"
        },
        {
          "internalType": "address",
          "name": "_WSEI",
          "type": "address"
        }
      ],
      "stateMutability": "nonpayable",
      "type": "constructor"
    },
    {
      "inputs": [],
      "name": "WSEI",
      "outputs": [
        {
          "internalType": "address",
          "name": "",
          "type": "address"
        }
      ],
      "stateMutability": "view",
      "type": "function"
    },
    {
      "inputs": [
        {
          "internalType": "int256",
          "name": "amount0Delta",
          "type": "int256"
        },
        {
          "internalType": "int256",
          "name": "amount1Delta",
          "type": "int256"
        },
        {
          "internalType": "bytes",
          "name": "path",
          "type": "bytes"
        }
      ],
      "name": "dragonswapV2SwapCallback",
      "outputs": [],
      "stateMutability": "view",
      "type": "function"
    },
    {
      "inputs": [],
      "name": "factory",
      "outputs": [
        {
          "internalType": "address",
          "name": "",
          "type": "address"
        }
      ],
      "stateMutability": "view",
      "type": "function"
    },
    {
      "inputs": [],
      "name": "factoryV1",
      "outputs": [
        {
          "internalType": "address",
          "name": "",
          "type": "address"
        }
      ],
      "stateMutability": "view",
      "type": "function"
    },
    {
      "inputs": [
        {
          "internalType": "bytes",
          "name": "path",
          "type": "bytes"
        },
        {
          "internalType": "uint256",
          "name": "amountIn",
          "type": "uint256"
        }
      ],
      "name": "quoteExactInput",
      "outputs": [
        {
          "internalType": "uint256",
          "name": "amountOut",
          "type": "uint256"
        },
        {
          "internalType": "uint160[]",
          "name": "v2SqrtPriceX96AfterList",
          "type": "uint160[]"
        },
        {
          "internalType": "uint32[]",
          "name": "v2InitializedTicksCrossedList",
          "type": "uint32[]"
        },
        {
          "internalType": "uint256",
          "name": "v2SwapGasEstimate",
          "type": "uint256"
        }
      ],
      "stateMutability": "nonpayable",
      "type": "function"
    },
    {
      "inputs": [
        {
          "components": [
            {
              "internalType": "address",
              "name": "tokenIn",
              "type": "address"
            },
            {
              "internalType": "address",
              "name": "tokenOut",
              "type": "address"
            },
            {
              "internalType": "uint256",
              "name": "amountIn",
              "type": "uint256"
            }
          ],
          "internalType": "struct IMixedRouteQuoterV1.QuoteExactInputSingleV1Params",
          "name": "params",
          "type": "tuple"
        }
      ],
      "name": "quoteExactInputSingleV1",
      "outputs": [
        {
          "internalType": "uint256",
          "name": "amountOut",
          "type": "uint256"
        }
      ],
      "stateMutability": "view",
      "type": "function"
    },
    {
      "inputs": [
        {
          "components": [
            {
              "internalType": "address",
              "name": "tokenIn",
              "type": "address"
            },
            {
              "internalType": "address",
              "name": "tokenOut",
              "type": "address"
            },
            {
              "internalType": "uint256",
              "name": "amountIn",
              "type": "uint256"
            },
            {
              "internalType": "uint24",
              "name": "fee",
              "type": "uint24"
            },
            {
              "internalType": "uint160",
              "name": "sqrtPriceLimitX96",
              "type": "uint160"
            }
          ],
          "internalType": "struct IMixedRouteQuoterV1.QuoteExactInputSingleV2Params",
          "name": "params",
          "type": "tuple"
        }
      ],
      "name": "quoteExactInputSingleV2",
      "outputs": [
        {
          "internalType": "uint256",
          "name": "amountOut",
          "type": "uint256"
        },
        {
          "internalType": "uint160",
          "name": "sqrtPriceX96After",
          "type": "uint160"
        },
        {
          "internalType": "uint32",
          "name": "initializedTicksCrossed",
          "type": "uint32"
        },
        {
          "internalType": "uint256",
          "name": "gasEstimate",
          "type": "uint256"
        }
      ],
      "stateMutability": "nonpayable",
      "type": "function"
    }
  ],
  "bytecode": "0x60e06040523480156200001157600080fd5b506040516200225438038062002254833981016040819052620000349162000078565b6001600160601b0319606093841b811660805290831b811660a052911b1660c052620000c1565b80516001600160a01b03811681146200007357600080fd5b919050565b6000806000606084860312156200008d578283fd5b62000098846200005b565b9250620000a8602085016200005b565b9150620000b8604085016200005b565b90509250925092565b60805160601c60a05160601c60c05160601c61214e620001066000398061012d52806109b052508061015152508061037d528061051352806107ad525061214e6000f3fe608060405234801561001057600080fd5b506004361061007d5760003560e01c80636118b15d1161005b5780636118b15d146100cb578063c45a0155146100e0578063cdca1753146100e8578063e2de7c181461010b5761007d565b80633957f453146100825780634dfa7a08146100a057806353349844146100a8575b600080fd5b61008a61012b565b6040516100979190611ea7565b60405180910390f35b61008a61014f565b6100bb6100b6366004611c96565b610173565b6040516100979493929190612051565b6100de6100d9366004611b7a565b61034c565b005b61008a610511565b6100fb6100f6366004611b14565b610535565b6040516100979493929190611fa9565b61011e610119366004611c32565b610787565b6040516100979190611fa0565b7f000000000000000000000000000000000000000000000000000000000000000081565b7f000000000000000000000000000000000000000000000000000000000000000081565b60208101518151606083015160009283928392839273ffffffffffffffffffffffffffffffffffffffff808216908416109284926101b192906107a6565b905060005a90508173ffffffffffffffffffffffffffffffffffffffff1663128acb0830856101e38c604001516107e4565b60808d015173ffffffffffffffffffffffffffffffffffffffff161561020d578c60800151610233565b8761022c5773fffd8963efd1fc6a506488495d951d5263988d25610233565b6401000276a45b8d600001518e606001518f6020015160405160200161025493929190611e41565b6040516020818303038152906040526040518663ffffffff1660e01b8152600401610283959493929190611ec8565b6040805180830381600087803b15801561029c57600080fd5b505af19250505080156102ea575060408051601f3d9081017fffffffffffffffffffffffffffffffffffffffffffffffffffffffffffffffe01682019092526102e791810190611b57565b60015b61033f573d808015610318576040519150601f19603f3d011682016040523d82523d6000602084013e61031d565b606091505b505a8203945061032e818487610816565b975097509750975050505050610345565b50505050505b9193509193565b600083138061035b5750600082135b61036457600080fd5b6000806000610372846108ea565b9250925092506103a47f000000000000000000000000000000000000000000000000000000000000000084848461091b565b50600080600088136103e8578473ffffffffffffffffffffffffffffffffffffffff168473ffffffffffffffffffffffffffffffffffffffff16108860000361041c565b8373ffffffffffffffffffffffffffffffffffffffff168573ffffffffffffffffffffffffffffffffffffffff1610876000035b91509150600061042d8686866107a6565b90506000808273ffffffffffffffffffffffffffffffffffffffff16633850c7bd6040518163ffffffff1660e01b815260040160e06040518083038186803b15801561047857600080fd5b505afa15801561048c573d6000803e3d6000fd5b505050506040513d601f19601f820116820180604052508101906104b09190611d23565b50505050509150915084156104d657604051848152826020820152816040820152606081fd5b6040517f08c379a000000000000000000000000000000000000000000000000000000000815260040161050890611f6b565b60405180910390fd5b7f000000000000000000000000000000000000000000000000000000000000000081565b600060608060006105458661093a565b67ffffffffffffffff8111801561055b57600080fd5b50604051908082528060200260200182016040528015610585578160200160208202803683370190505b5092506105918661093a565b67ffffffffffffffff811180156105a757600080fd5b506040519080825280602002602001820160405280156105d1578160200160208202803683370190505b50915060005b60008060006105e58a6108ea565b919450925090506280000081161561064d5761064660405180606001604052808573ffffffffffffffffffffffffffffffffffffffff1681526020018473ffffffffffffffffffffffffffffffffffffffff1681526020018b815250610787565b9850610746565b6000806000806106ca6040518060a001604052808973ffffffffffffffffffffffffffffffffffffffff1681526020018873ffffffffffffffffffffffffffffffffffffffff1681526020018f81526020018762ffffff168152602001600073ffffffffffffffffffffffffffffffffffffffff16815250610173565b9350935093509350828b89815181106106df57fe5b602002602001019073ffffffffffffffffffffffffffffffffffffffff16908173ffffffffffffffffffffffffffffffffffffffff1681525050818a898151811061072657fe5b63ffffffff90921660209283029190910190910152929b50505094909401935b6001909301926107558a610969565b1561076a576107638a610971565b9950610776565b8897505050505061077e565b5050506105d7565b92959194509250565b60006107a08260400151836000015184602001516109a6565b92915050565b60006107dc7f00000000000000000000000000000000000000000000000000000000000000006107d78686866109ef565b610a6c565b949350505050565b60007f8000000000000000000000000000000000000000000000000000000000000000821061081257600080fd5b5090565b6000806000806000808773ffffffffffffffffffffffffffffffffffffffff16633850c7bd6040518163ffffffff1660e01b815260040160e06040518083038186803b15801561086557600080fd5b505afa158015610879573d6000803e3d6000fd5b505050506040513d601f19601f8201168201806040525081019061089d9190611d23565b509396506108b294508d9350610ba292505050565b919750955090506108da73ffffffffffffffffffffffffffffffffffffffff89168383610c5a565b9350869250505093509350935093565b600080806108f884826112b2565b92506109058460146113b2565b90506109128460176112b2565b91509193909250565b60006109318561092c8686866109ef565b6114a2565b95945050505050565b805160177fffffffffffffffffffffffffffffffffffffffffffffffffffffffffffffffec909101045b919050565b516042111590565b80516060906107a09083906017907fffffffffffffffffffffffffffffffffffffffffffffffffffffffffffffffe9016114d2565b60008060006109d67f000000000000000000000000000000000000000000000000000000000000000086866116b9565b915091506109e58683836117a1565b9695505050505050565b6109f7611a74565b8273ffffffffffffffffffffffffffffffffffffffff168473ffffffffffffffffffffffffffffffffffffffff161115610a2f579192915b506040805160608101825273ffffffffffffffffffffffffffffffffffffffff948516815292909316602083015262ffffff169181019190915290565b6000816020015173ffffffffffffffffffffffffffffffffffffffff16826000015173ffffffffffffffffffffffffffffffffffffffff1610610aae57600080fd5b508051602080830151604093840151845173ffffffffffffffffffffffffffffffffffffffff94851681850152939091168385015262ffffff166060808401919091528351808403820181526080840185528051908301207fff0000000000000000000000000000000000000000000000000000000000000060a085015294901b7fffffffffffffffffffffffffffffffffffffffff0000000000000000000000001660a183015260b58201939093527f7eeacb23bdc28add5b4c2a0b30a03d6280208d04ba9baf8f56e87a331cf7359060d5808301919091528251808303909101815260f5909101909152805191012090565b60008060008351606014610c3957604484511015610bec576040517f08c379a000000000000000000000000000000000000000000000000000000000815260040161050890611f34565b60048401935083806020019051810190610c069190611bc8565b6040517f08c379a00000000000000000000000000000000000000000000000000000000081526004016105089190611f1a565b83806020019051810190610c4d9190611dba565b9250925092509193909250565b60008060008060008060008060088b73ffffffffffffffffffffffffffffffffffffffff1663d0c93a7c6040518163ffffffff1660e01b815260040160206040518083038186803b158015610cae57600080fd5b505afa158015610cc2573d6000803e3d6000fd5b505050506040513d6020811015610cd857600080fd5b5051600290810b908c900b81610cea57fe5b0560020b901d905060006101008c73ffffffffffffffffffffffffffffffffffffffff1663d0c93a7c6040518163ffffffff1660e01b815260040160206040518083038186803b158015610d3d57600080fd5b505afa158015610d51573d6000803e3d6000fd5b505050506040513d6020811015610d6757600080fd5b5051600290810b908d900b81610d7957fe5b0560020b81610d8457fe5b079050600060088d73ffffffffffffffffffffffffffffffffffffffff1663d0c93a7c6040518163ffffffff1660e01b815260040160206040518083038186803b158015610dd157600080fd5b505afa158015610de5573d6000803e3d6000fd5b505050506040513d6020811015610dfb57600080fd5b5051600290810b908d900b81610e0d57fe5b0560020b901d905060006101008e73ffffffffffffffffffffffffffffffffffffffff1663d0c93a7c6040518163ffffffff1660e01b815260040160206040518083038186803b158015610e6057600080fd5b505afa158015610e74573d6000803e3d6000fd5b505050506040513d6020811015610e8a57600080fd5b5051600290810b908e900b81610e9c57fe5b0560020b81610ea757fe5b07905060008160ff166001901b8f73ffffffffffffffffffffffffffffffffffffffff16635339c296856040518263ffffffff1660e01b8152600401808260010b815260200191505060206040518083038186803b158015610f0857600080fd5b505afa158015610f1c573d6000803e3d6000fd5b505050506040513d6020811015610f3257600080fd5b505116118015610fc557508d73ffffffffffffffffffffffffffffffffffffffff1663d0c93a7c6040518163ffffffff1660e01b815260040160206040518083038186803b158015610f8357600080fd5b505afa158015610f97573d6000803e3d6000fd5b505050506040513d6020811015610fad57600080fd5b5051600290810b908d900b81610fbf57fe5b0760020b155b8015610fd657508b60020b8d60020b135b945060008360ff166001901b8f73ffffffffffffffffffffffffffffffffffffffff16635339c296876040518263ffffffff1660e01b8152600401808260010b815260200191505060206040518083038186803b15801561103657600080fd5b505afa15801561104a573d6000803e3d6000fd5b505050506040513d602081101561106057600080fd5b5051161180156110f357508d73ffffffffffffffffffffffffffffffffffffffff1663d0c93a7c6040518163ffffffff1660e01b815260040160206040518083038186803b1580156110b157600080fd5b505afa1580156110c5573d6000803e3d6000fd5b505050506040513d60208110156110db57600080fd5b5051600290810b908e900b816110ed57fe5b0760020b155b801561110457508b60020b8d60020b125b95508160010b8460010b128061113057508160010b8460010b14801561113057508060ff168360ff1611155b1561114657839950829750819850809650611153565b8199508097508398508296505b50507fffffffffffffffffffffffffffffffffffffffffffffffffffffffffffffffff60ff87161b9150505b8560010b8760010b1361128a578560010b8760010b14156111c4577fffffffffffffffffffffffffffffffffffffffffffffffffffffffffffffffff60ff858103161c165b6000818c73ffffffffffffffffffffffffffffffffffffffff16635339c2968a6040518263ffffffff1660e01b8152600401808260010b815260200191505060206040518083038186803b15801561121b57600080fd5b505afa15801561122f573d6000803e3d6000fd5b505050506040513d602081101561124557600080fd5b505116905061125381611877565b61ffff16989098019750506001909501947fffffffffffffffffffffffffffffffffffffffffffffffffffffffffffffffff61117f565b8115611297576001880397505b82156112a4576001880397505b505050505050509392505050565b60008182601401101561132657604080517f08c379a000000000000000000000000000000000000000000000000000000000815260206004820152601260248201527f746f416464726573735f6f766572666c6f770000000000000000000000000000604482015290519081900360640190fd5b816014018351101561139957604080517f08c379a000000000000000000000000000000000000000000000000000000000815260206004820152601560248201527f746f416464726573735f6f75744f66426f756e64730000000000000000000000604482015290519081900360640190fd5b5001602001516c01000000000000000000000000900490565b60008182600301101561142657604080517f08c379a000000000000000000000000000000000000000000000000000000000815260206004820152601160248201527f746f55696e7432345f6f766572666c6f77000000000000000000000000000000604482015290519081900360640190fd5b816003018351101561149957604080517f08c379a000000000000000000000000000000000000000000000000000000000815260206004820152601460248201527f746f55696e7432345f6f75744f66426f756e6473000000000000000000000000604482015290519081900360640190fd5b50016003015190565b60006114ae8383610a6c565b90503373ffffffffffffffffffffffffffffffffffffffff8216146107a057600080fd5b60608182601f01101561154657604080517f08c379a000000000000000000000000000000000000000000000000000000000815260206004820152600e60248201527f736c6963655f6f766572666c6f77000000000000000000000000000000000000604482015290519081900360640190fd5b8282840110156115b757604080517f08c379a000000000000000000000000000000000000000000000000000000000815260206004820152600e60248201527f736c6963655f6f766572666c6f77000000000000000000000000000000000000604482015290519081900360640190fd5b8183018451101561162957604080517f08c379a000000000000000000000000000000000000000000000000000000000815260206004820152601160248201527f736c6963655f6f75744f66426f756e6473000000000000000000000000000000604482015290519081900360640190fd5b60608215801561164857604051915060008252602082016040526116b0565b6040519150601f8416801560200281840101858101878315602002848b0101015b81831015611681578051835260209283019201611669565b5050858452601f017fffffffffffffffffffffffffffffffffffffffffffffffffffffffffffffffe016604052505b50949350505050565b60008060006116c885856118b0565b5090506000806116d9888888611955565b73ffffffffffffffffffffffffffffffffffffffff16630902f1ac6040518163ffffffff1660e01b815260040160606040518083038186803b15801561171e57600080fd5b505afa158015611732573d6000803e3d6000fd5b505050506040513d606081101561174857600080fd5b5080516020909101516dffffffffffffffffffffffffffff918216935016905073ffffffffffffffffffffffffffffffffffffffff8781169084161461178f578082611792565b81815b90999098509650505050505050565b600080841161181157604080517f08c379a000000000000000000000000000000000000000000000000000000000815260206004820152601960248201527f494e53554646494349454e545f494e5055545f414d4f554e5400000000000000604482015290519081900360640190fd5b6000831180156118215750600082115b61182a57600080fd5b6000611838856103e5611a40565b905060006118468285611a40565b905060006118608361185a886103e8611a40565b90611a64565b905080828161186b57fe5b04979650505050505050565b6000805b82156107a0577fffffffffffffffffffffffffffffffffffffffffffffffffffffffffffffffff83019092169160010161187b565b6000808273ffffffffffffffffffffffffffffffffffffffff168473ffffffffffffffffffffffffffffffffffffffff1614156118ec57600080fd5b8273ffffffffffffffffffffffffffffffffffffffff168473ffffffffffffffffffffffffffffffffffffffff1610611926578284611929565b83835b909250905073ffffffffffffffffffffffffffffffffffffffff821661194e57600080fd5b9250929050565b600080600061196485856118b0565b604080517fffffffffffffffffffffffffffffffffffffffff000000000000000000000000606094851b811660208084019190915293851b81166034830152825160288184030181526048830184528051908501207fff0000000000000000000000000000000000000000000000000000000000000060688401529a90941b9093166069840152607d8301989098527f7240a7a71cc85d56ee2e5ca1c5236ce877abc9b49b4696adc94968ef43796fed609d808401919091528851808403909101815260bd909201909752805196019590952095945050505050565b6000821580611a5b57505081810281838281611a5857fe5b04145b6107a057600080fd5b808201828110156107a057600080fd5b604080516060810182526000808252602082018190529181019190915290565b600082601f830112611aa4578081fd5b8135611ab7611ab2826120ac565b612088565b818152846020838601011115611acb578283fd5b816020850160208301379081016020019190915292915050565b8051600281900b811461096457600080fd5b80356109648161211c565b805161ffff8116811461096457600080fd5b60008060408385031215611b26578182fd5b823567ffffffffffffffff811115611b3c578283fd5b611b4885828601611a94565b95602094909401359450505050565b60008060408385031215611b69578182fd5b505080516020909101519092909150565b600080600060608486031215611b8e578081fd5b8335925060208401359150604084013567ffffffffffffffff811115611bb2578182fd5b611bbe86828701611a94565b9150509250925092565b600060208284031215611bd9578081fd5b815167ffffffffffffffff811115611bef578182fd5b8201601f81018413611bff578182fd5b8051611c0d611ab2826120ac565b818152856020838501011115611c21578384fd5b6109318260208301602086016120ec565b600060608284031215611c43578081fd5b6040516060810181811067ffffffffffffffff82111715611c6057fe5b6040528235611c6e8161211c565b81526020830135611c7e8161211c565b60208201526040928301359281019290925250919050565b600060a08284031215611ca7578081fd5b60405160a0810181811067ffffffffffffffff82111715611cc457fe5b6040528235611cd28161211c565b81526020830135611ce28161211c565b602082015260408381013590820152606083013562ffffff81168114611d06578283fd5b6060820152611d1760808401611af7565b60808201529392505050565b600080600080600080600060e0888a031215611d3d578283fd5b8751611d488161211c565b9650611d5660208901611ae5565b9550611d6460408901611b02565b9450611d7260608901611b02565b9350611d8060808901611b02565b925060a088015160ff81168114611d95578283fd5b60c08901519092508015158114611daa578182fd5b8091505092959891949750929550565b600080600060608486031215611dce578081fd5b835192506020840151611de08161211c565b9150611dee60408501611ae5565b90509250925092565b60008151808452611e0f8160208601602086016120ec565b601f017fffffffffffffffffffffffffffffffffffffffffffffffffffffffffffffffe0169290920160200192915050565b606093841b7fffffffffffffffffffffffffffffffffffffffff000000000000000000000000908116825260e89390931b7fffffff0000000000000000000000000000000000000000000000000000000000166014820152921b166017820152602b0190565b73ffffffffffffffffffffffffffffffffffffffff91909116815260200190565b600073ffffffffffffffffffffffffffffffffffffffff8088168352861515602084015285604084015280851660608401525060a06080830152611f0f60a0830184611df7565b979650505050505050565b600060208252611f2d6020830184611df7565b9392505050565b60208082526010908201527f556e6578706563746564206572726f7200000000000000000000000000000000604082015260600190565b6020808252818101527f4578616374206f75747075742071756f7465206e6f7420737570706f72746564604082015260600190565b90815260200190565b600060808201868352602060808185015281875180845260a0860191508289019350845b81811015611fff57845173ffffffffffffffffffffffffffffffffffffffff1683529383019391830191600101611fcd565b505084810360408601528651808252908201925081870190845b8181101561203b57825163ffffffff1685529383019391830191600101612019565b5050505060609290920192909252949350505050565b93845273ffffffffffffffffffffffffffffffffffffffff92909216602084015263ffffffff166040830152606082015260800190565b60405181810167ffffffffffffffff811182821017156120a457fe5b604052919050565b600067ffffffffffffffff8211156120c057fe5b50601f017fffffffffffffffffffffffffffffffffffffffffffffffffffffffffffffffe01660200190565b60005b838110156121075781810151838201526020016120ef565b83811115612116576000848401525b50505050565b73ffffffffffffffffffffffffffffffffffffffff8116811461213e57600080fd5b5056fea164736f6c6343000706000a",
  "linkReferences": {},
  "deployedLinkReferences": {}
}